:060C3C00D2907F207E0330
:100C4200D3EF9400EE9400400B7D6EDDFEEF1F703B
:040C5200EF1E80EC25
:010C5600227B
:10080000C290C291C292C293C294C295C296C2973C
:10081000C280C281C282C283C284C285C286C287AC
:10082000C2A0C2A1C2A2C2A3C2A4C2A5C2A6C2A79C
:10083000C2B0C2B1C2B2C2B3C2B4C2B5C2B6C2B70C
:10084000120C3CD291120C3ED292120C3ED2931258
:100850000C3ED294120C3ED295120C3ED296120C43
:100860003ED297120C3ED280120C3ED281120C3E28
:10087000D282120C3ED283120C3ED284120C3ED293
:1008800085120C3ED286120C3ED287120C3ED2A0AC
:10089000120C3ED2A1120C3ED2A2120C3ED2A312D6
:1008A0000C3ED2A4120C3ED2A5120C3ED2A6120CC3
:1008B0003ED2A7120C3ED2B0120C3ED2B1120C3E68
:1008C000D2B2120C3ED2B3120C3ED2B4120C3ED2B3
:1008D000B5120C3ED2B6120C3ED2B7120C3EC290EC
:1008E000C291C292C293C294C295C296C297C2806C
:1008F000C281C282C283C284C285C286C287C2A0AC
:10090000C2A1C2A2C2A3C2A4C2A5C2A6C2A7C2B0AB
:10091000C2B1C2B2C2B3C2B4C2B5C2B6C2B7D2B714
:10092000120C3EC2B7D2B6120C3EC2B6D2B5120CF1
:100930003EC2B5D2B4120C3EC2B4D2B3120C3EC207
:10094000B3D2B2120C3EC2B2D2B1120C3EC2B1D27C
:10095000B0120C3EC2B0D2A7120C3EC2A7D2A61251
:100960000C3EC2A6D2A5120C3EC2A5D2A4120C3EC9
:10097000C2A4D2A3120C3EC2A3D2A2120C3EC2A2A7
:10098000D2A1120C3EC2A1D2A0120C3EC2A0D287AC
:10099000120C3EC287D286120C3EC286D285120C41
:1009A0003EC285D284120C3EC284D283120C3EC257
:1009B00083D282120C3EC282D281120C3EC281D2FC
:1009C00080120C3EC280D297120C3EC297D2961271
:1009D0000C3EC296D295120C3EC295D294120C3E99
:1009E000C294D293120C3EC293D292120C3EC29287
:1009F000D291120C3EC291120C3CE4FBFAC290C29E
:100A000091C292C293C294C295C296C297C280C24A
:100A100081C282C283C284C285C286C287C2A0C28A
:100A2000A1C2A2C2A3C2A4C2A5C2A6C2A7C2B0C28A
:100A3000B1C2B2C2B3C2B4C2B5C2B6C2B7EB5403FC
:100A40007022D290D291D292D293D294D295D29651
:100A5000D297C280C281C282C283C284C285C2864A
:100A6000C2878027EB540364017032C290C291C2E6
:100A700092C293C294C295C296C297D280D281D2BA
:100A800082D283D284D285D286D287C2A0C2A1C2AA
:100A9000A2C2A3C2A4C2A5C2A6C2A78037EB5403B8
:100AA00064027042C290C291C292C293C294C29533
:100AB000C296C297C280C281C282C283C284C285EA
:100AC000C286C287D2A0D2A1D2A2D2A3D2A4D2A5DA
:100AD000D2A6D2A7C2B0C2B1C2B2C2B3C2B4C2B56A
:100AE000C2B6C2B78047EB540364037047C290C2DA
:100AF00091C292C293C294C295C296C297C280C25A
:100B000081C282C283C284C285C286C287C2A0C299
:100B1000A1C2A2C2A3C2A4C2A5C2A6C2A7D2B0D279
:100B2000B1D2B2D2B3D2B4D2B5D2B6D2B77FBC7E34
:100B300002120C420BBB00010AEB64284A6003025C
:100B400009FD7A007B32D290D291D292D293D29484
:100B5000D295D296D297D280D281D282D283D284B9
:100B6000D285D286D287D2A0D2A1D2A2D2A3D2A439
:100B7000D2A5D2A6D2A7D2B0D2B1D2B2D2B3D2B479
:100B8000D2B5D2B6D2B77C007D0AAF03AE02120C4A
:100B900057EF24FAFFE43EFE120C42C290C291C20B
:100BA00092C293C294C295C296C297C280C281C2B9
:100BB00082C283C284C285C286C287C2A0C2A1C2C9
:100BC000A2C2A3C2A4C2A5C2A6C2A7C2B0C2B1C2D9
:100BD000B2C2B3C2B4C2B5C2B6C2B77D0AAF03AE29
:100BE00002120C57EF24FAFFE43EFE120C42EB1BFC
:100BF00070011AEB4A6003020B46D290D291D29256
:100C0000D293D294D295D296D297D280D281D282E8
:100C1000D283D284D285D286D287D2A0D2A1D2A2C8
:100C2000D2A3D2A4D2A5D2A6D2A7D2B0D2B1D2B2E8
:0C0C3000D2B3D2B4D2B5D2B6D2B780BED7
:03000000020C6986
:0C0C6900787FE4F6D8FD758107020800D2
:100C5700EF8DF0A4A8F0CF8CF0A428CE8DF0A42EB1
:020C6700FE226B
:00000001FF
