:020000000130CD
:02000300019862
:02000B00214F83
:0200130001EBFF
:10003000D2AFD2A8D2AAD2B9C2B8C2BA120102B8FB
:10004000E7020149B8EBE9017C1201027400790072
:10005000E904F990017A93C2D79870F47580017B16
:100060000F90018AE9937E20DEFEB284208405236E
:10007000A2E79287DBF0D285C285014912010274A2
:10008000007A00EA04FA90017A93C2D79870F4904B
:10009000019AEA93F580017C120168780379057D65
:1000A0009EED120137D28012015FC2807D8CED126D
:1000B0000137D28112015FC2817D8CED120137D2EE
:1000C0008212015FC2827D02ED120137D2831201DA
:1000D0005FC28330D5C9C2D5D9C5790375800030D8
:1000E000D5FDC2D5D9F97905D8B5321201687B5052
:1000F000747FF58030D5FBC2D503DBF6C28C7580EA
:10010000FF320075A00FE5A0540FB40F02210312B7
:10011000015FE5A0540FB40F022103F875A0F0E5CC
:10012000A054F0B4F002211C12015FE5A054F0B419
:10013000F002211C48F8227E008E807C08C28613C3
:100140009287D284C284DCF7214AD285C285227587
:100150008901758C3C758AB0DF047F02D2D5327E6E
:01016000326C
:100161007D32DDFEDEFA22758901758C3C758AB01F
:10017100D2A9D28CC2D57F0222E7EBEDEED7DBDD2F
:10018100DEB7BBBDBE777B7D7E3F065B4F666D7D77
:10019100077F6F5F7C395E79717FBFDFEFF7FBFD12
:0901A100FE7FBFDFEFF7FBFDFE5E
:00000001FF
