:02000000010BF2
:10000B000075A00FE5A0540FB40F02010C120041B4
:10001B00E5A0540FB40F02010CF875A0F0E5A05445
:10002B00F0B4F0020125120041E5A054F0B4F00247
:10003B00012548F8014A7F1E7E96DEFEDFFA227408
:10004B00007D00ED04FD90007A93C2D79870F47593
:10005B0080017B0F90008BED937E20DEFEB284201F
:10006B00840523A2E79287DBF0D285C285010C00C1
:10007B00E7EBEDEED7DBDDDEB7BBBDBE777B7D7E81
:10008B00003F065B4F666D7D077F6F777C395E792E
:01009B0071F3
:00000001FF
